:020000042001D9
:100000009711FF5F938181289702000093828205F8
:100010007390523093020000638402007350107C8E
:100020001701FFDF130101FE9700FFDF938080FDC2
:10003000638300008290732540F1814501461528B5
:100040009700FFDF938000FC63830000829097029B
:1000500000009382C2007390523003230000F5BF6A
:10006000F322203473231034F3233034D5BF82803D
:10007000828006849711FF5F93814121138101D013
:100080008142130300406385A2001A918502E5BFF7
:10009000137101FF93020000631955089742000095
:1000A0009382C2551703FF5F1303C3F59383018542
:1000B000638C6200635A730003A50200910223203F
:1000C000A3001103E34A73FE974200009382025398
:1000D0001703FFE7130303F39703FFE7938383F209
:1000E000638C6200635A730003A50200910223200F
:1000F000A3001103E34A73FE0F1000001713FF5F04
:100100001303C39D9383019063577300232003005F
:100110001103E34D73FE11C202961735000013055B
:1001200045FFEF20D07AEF3000029937F3271030E7
:100130003707010013078702F98F89CBF3270030B7
:100140000967D98F73900730735030000545974584
:1001500000009385654817460000130626483120A5
:10016000EF205078A28082808280411106C2F32263
:1001700040F1130300006385620073005010F5BF67
:08018000412092404101828000
:100200004111014522C406C626C24AC0EF00307023
:1002100023A8A18E09ED374501201305C5A8ED2EB1
:100220000945B24022449244024941018280EF00D4
:10023000906D23A6A18E01E937450120130585A9FC
:10024000E12E0D45F9BFEF00B074012203A5018F27
:10025000EF00706A23A4A18E01E937450120130540
:10026000C5AB5D2E114575BFEF00907203A5018FE0
:10027000EF00F068AA8523ACA18E83A6018F03A5A9
:10028000818E370601201306E632EF00F0702A84D3
:10029000635A050037450120130545AEB52E3305D9
:1002A000804041B703A5C18E8145EF00706FFD57B7
:1002B0006319F50037450120130505B1B12E194525
:1002C0008DB70145EF00506B95452A84EF0090668D
:1002D00095452285EF00D06495452285EF00906812
:1002E000014695452285EF003066228505469545F5
:1002F000352A014695452285152AC5BF3705008058
:10030000130505096F20C02CB725F40037050080C0
:1003100093850540130505096F207036F165371583
:10032000008093850520130585A46F20503883A590
:10033000818F03A5818E411106C6EF00F066B240A1
:10034000054723AAE18E410182804111294506C655
:10035000812237350120130545337D2C29450D2A8F
:100360003735012013050537452C37350120130596
:10037000853D5D243735012013050544712C373543
:1003800001201305854A492C3735012013054551B5
:1003900061243735012013050558BD2C3735012060
:1003A0001305C55E952C3735012013058565AD24F1
:1003B000373501201305456C852437350120130599
:1003C0000573992C373501201305C579B1242945CA
:1003D000C1202945752837450120130545802D2C5E
:1003E0003745012013058586052C37450120130567
:1003F000858C1D24374501201305C592312C3745C6
:1004000001201305C598092C374501201305C59E09
:1004100021242945B5282945A52829459528B240F4
:10042000374501201305C5A44101FDA2011126CACB
:1004300083A4018F22CC4AC82A89268506CE4EC6BF
:1004400052C4AE89328A23AA018EEF00D049A16737
:10045000AA9733B5A7003306B500BE852685EF0001
:10046000104983A5818F03A5818EEF00705383A768
:10047000418FF5DF23AA018E6244F240D2445286B6
:10048000CE85224AB2494A85424905616F00D04B68
:1004900001119707FF5F9387675F22CC804306CEE9
:1004A000AA8519C41C4C89E72AC622857D23B2453A
:1004B000104422856244F240056109A0011122CC5A
:1004C00006CE2A8401C91C4D91E732C62EC4712381
:1004D0003246A24597370000938787676315F60277
:1004E00050401C46FD171CC663DF0702184E63C749
:1004F000E70093F7F50F29476397E70222856244E7
:10050000F24005610DA29737000093876766631478
:10051000F6001044F9B79737000093876761E3123C
:10052000F6FC50447DBF1C4213F5F50F13871700EE
:1005300018C22380B700F240624405618280011135
:1005400026CA4AC806CE22CC4EC652C4AA842E89D8
:1005500001C51C4D91E311239C4C804499E32685F1
:10056000ED29973700009387A75E631CF402C04013
:100570008357C400A18BB1C71C48A1C7FD59294AA4
:100580001C4483450900FD17B1E91CC463DE07065E
:100590002286A94526854128FD576308F50229458D
:1005A00035A0973700009387A75C6314F40080445C
:1005B000C1B7973700009387A757E31BF4FAC044ED
:1005C00045BFA2852685052255D97D55F240624456
:1005D000D2444249B249224A056182801CC40509BD
:1005E00063D70700184C63CBE700638945011C40C3
:1005F0001387170018C02380B70059B722862685B5
:100600001D20E31F35F7D1B71C401387170018C012
:1006100029472380E70061B79707FF5F9387074764
:10062000AA85884329BF011122CC26CA4AC806CE12
:100630004EC6AA842E89328401C51C4D91E331290E
:10064000973700009387C7506319F406C0401C4CCD
:100650001CC48357C400A18BC9C31C48BDCF1C4810
:1006600008409379F90F1379F90F1D8D5C486346A3
:10067000F500A2852685E9242DE51C440505FD1716
:100680001CC41C401387170018C0238037015C4826
:100690006389A7008357C400858B81CBA947631664
:1006A000F900A2852685692C0DEDF24062444A8549
:1006B000D2444249B249056182809737000093874E
:1006C000274B6314F400804459B797370000938791
:1006D0002746E31EF4F6C0449DBFA285268521204F
:1006E0003DDD7D59D9B741119707FF5F9387073AE1
:1006F00026C2844322C44AC006C62A892E8489C4DD
:100700009C4C99E32685912E9737000093874744A8
:10071000631CF402C0400317C40093170701C18390
:1007200093F68700B5EE93F607019DEEA5472320CB
:10073000F900136707042316E4007D55B2402244F4
:1007400092440249410182809737000093874742D3
:100750006314F4008044C1B7973700009387473D86
:10076000E31BF4FAC04445BF918B8DC74C5889C92F
:10077000930744046384F5004A85C52B232A0402A9
:100780008357C4002322040093F7B7FD2316F40017
:100790001C481CC08357C40093E787002316F4004D
:1007A0001C4881EF8357C4001307002093F70728E4
:1007B0006385E700A2854A85BD218357C40013F7EE
:1007C000170005C75C4823240400B307F0401CCC85
:1007D0001C480145A5F78317C40013F7070839DF44
:1007E00093E707042316F40089BF898B014791E33F
:1007F000584818C4F1BF83D7C500011122CC26CABE
:1008000006CE4AC84EC613F78700AA842E8465E731
:10081000D8416347E000B8416344E0000145C1A00E
:1008200058546DDF03A904009396370123A00400F8
:1008300063DE060668488357C400918B99C75C4005
:100840001D8D5C5899C33C401D8D5C540C502A860C
:10085000814626858297FD570357C400631DF50026
:100860009440F54763E4D708B70740208507B3D71E
:10087000D700858BA5CF1C48232204001CC09317EA
:10088000370163D80700FD576314F5009C4091E3DE
:1008900068C84C5823A02401D1D193074404638431
:1008A000F5002685D921232A04028DBF0C508546E8
:1008B000014626850297FD57E31FF5F69C40A5DF0C
:1008C00075476385E70059476395E70023A0240136
:1008D000B1B78357C40093E707042316F400F2402E
:1008E0006244D2444249B2490561828013670704D9
:1008F0002316E400EDB783A90501E38109F203A9FA
:1009000005008D8B23A0350133093941014791E35F
:10091000D84918C4E35420F11C540C50CA864E86A2
:1009200026858297634AA0008357C4007D5593E7CC
:1009300007042316F40065B7AA993309A940D9BF63
:100940009C49B9CF011122CC06CE2A8411C51C4D79
:1009500081E72EC61922B245973700009387471FBB
:10096000639BF5004C408397C50095C72285624480
:10097000F240056149B5973700009387671F63947C
:10098000F5000C44CDB7973700009387671AE39CB6
:10099000F5FC4C44C9BFF2406244014505618280C8
:1009A00001458280411122C406C62A842316B5005F
:1009B0002317C5002320050023220500232405005A
:1009C0002322050623280500232A0500232C0500E1
:1009D000214681451305C505ED249707000093873F
:1009E00047545CD0970700009387A7561CD49707FD
:1009F00000009387E75A5CD4970700009387A75DB0
:100A000000D01CD8B24022444101828097050000EA
:100A1000938545F3B9A2411126C21306800693843B
:100A2000F5FFB384C4024AC02E8922C406C693854A
:100A30004407D5262A8419C923200500232225012D
:100A4000310508C4138684068145A52C2285B24051
:100A5000224492440249410182801C4DBDE3411170
:100A600006C622C497070000938787FA1CD597070C
:100A7000FF5F9387E7019C43232405042326050495
:100A8000232805046314F50085471CCD2A841D28FE
:100A900048C02285052808C422852D2048C4484026
:100AA00001469145013708440546A545E53D4844C2
:100AB0000946C945C53D85471CCCB2402244410189
:100AC0008280828041119707FF5F938767FC26C26F
:100AD00084434AC006C69C4C22C42A8999E32685D1
:100AE000AD3F938484048044DC40FD1763D6070047
:100AF0009C40B1CF8440C5BF0317C40031E7C17724
:100B00008507232204062320040023220400232433
:100B100004005CC423280400232A0400232C0400BE
:100B2000214681451305C405692A232A0402232C82
:100B3000040223240404232604042285B240224410
:100B400092440249410182801304840679BF914591
:100B50004A85D13588C02A8451FDB1472320F90048
:100B6000E9BF797122D44AD052CC56CA5AC85EC65F
:100B700006D626D24ECE2A8AAE8A130485040149AF
:100B8000054BFD5B09ECB25022544A859254025940
:100B9000F249624AD24A424BB24B456182800444D8
:100BA00083294400FD1963D409000040E1BF83D7C5
:100BB000C400637BFB008397E40063877701A6850D
:100BC0005285829A3369A90093848406E1BF197122
:100BD000A6DAAE848395E500A2DC86DE328463DC8F
:100BE000050083D7C40023A0060093F707089DE300
:100BF0009307004015A0300836C61D29B246E342CF
:100C000005FE7247BD67F98F7977BA9793B71700DA
:100C10009CC2F9BF930700041CC0F6506654D6541A
:100C200001450961828083D7C500011122CC06CE1F
:100C300026CA4AC8898B2E8489CF930774041CC0A6
:100C40001CC885475CC8F2406244D24442490561F1
:100C5000828074003000AA849D3FA2452A8926859F
:100C60005D2A01ED8317C40013F7072069FFF19B8C
:100C700093E727002316F400C9B79707000093876E
:100C800027D99CD48357C40008C008C893E7070835
:100C90002316F400A2475CC8B24789CF8315E4004D
:100CA00026856D2E01C98357C400F19B93E7170079
:100CB0002316F4008357C4003369F9002316240176
:100CC00059B73D432A876373C3029377F700BDEF9B
:100CD000ADE5937606FF3D8ABA960CC34CC30CC7AC
:100CE0004CC74107E36BD7FE11E28280B306C340D5
:100CF0008A069702000096966780A6002307B70031
:100D0000A306B7002306B700A305B7002305B70065
:100D1000A304B7002304B700A303B7002303B7005D
:100D2000A302B7002302B700A301B7002301B70055
:100D3000A300B7002300B700828093F5F50F9396C8
:100D40008500D58D93960501D58D61B793962700C3
:100D50009702000096968682E78086FA9680C117F1
:100D60001D8F3E96E374C3F8A5B7CDC583A7C5FF15
:100D7000411122C406C626C21384C5FF63D30700EF
:100D80003E94AA84052E9707FF5F938727D59C433F
:100D900089EF232204009707FF5F23A187D4224411
:100DA000B24026859244410139A6637EF400144086
:100DB0003307D4006396E7009843DC43369718C0A6
:100DC0005CC0D1BFBA87D84319C3E37DE4FE944326
:100DD0003386D700631F86001040B29694C33386D3
:100DE000D700E31EC7FA10435843B29694C3D8C342
:100DF0007DB76375C400B1479CC055B71040B306BA
:100E0000C4006316D70014435843B29614C058C0A8
:100E1000C0C371B78280011126CA93843500F1984E
:100E200006CE22CC4AC84EC6A104B14763F7F404EB
:100E3000B14463E6B4042A89B52C9707FF5F938712
:100E4000E7C998433A8431E49707FF5F938747C91E
:100E50009C4381EB81454A8571289707FF5F23A159
:100E6000A7C8A6854A857920FD5963193507B1477A
:100E70002320F9004A85812429A0E3DC04FAB14744
:100E80001CC10145F2406244D2444249B249056165
:100E900082801C40858F63C00704AD4663F6F60070
:100EA0001CC03E9404C001A85C406314870217076D
:100EB000FF5F2325F7C24A85FD2A1305B400930777
:100EC000440061993307F54055DF3A94898F1CC07F
:100ED00055BF5CC3CDB722874040B5B7130435007A
:100EE0007198E30185FCB305A4404A852120E31BEA
:100EF00035FBB5BF411122C42A842E8523AE018E55
:100F000006C6EF20E016FD576317F5009387C18FE3
:100F10009C4391C31CC0B2402244410182804111D4
:100F200022C42E848395E50006C679226349050014
:100F30007C48AA977CC8B2402244410182808357F2
:100F4000C4007D777D17F98F2316F400EDB783D7A2
:100F5000C500011122CC26CA4AC84EC606CE93F758
:100F60000710AA842E843289B68991C78395E5003B
:100F700089460146092A8357C4007D777D17F98F7A
:100F80002316F4008315E4006244F240CE864A86BC
:100F9000B24942492685D24405613DA8411122C487
:100FA0002E848395E50006C6F928FD570357C40033
:100FB000631BF500FD77FD17F98F2316F400B2408F
:100FC0002244410182808567D98F2316F40068C8C6
:100FD000FDB78395E50005A8411122C42A842E851A
:100FE000B285368623AE018E06C6EF20A00AFD57D5
:100FF0006317F5009387C18F9C4391C31CC0B24017
:10100000224441018280411122C42A842E8523AECC
:10101000018E06C6EF204000FD576317F500938749
:10102000C18F9C4391C31CC0B240224441018280C5
:10103000411122C42A842E85B28523AE018E06C6B4
:10104000EF10D07EFD576317F5009387C18F9C4347
:1010500091C31CC0B240224441018280411122C48C
:101060002A842E8523AE018E06C6EF10707DFD57B3
:101070006317F5009387C18F9C4391C31CC0B24096
:10108000224441018280411122C42A842E85B285E6
:10109000368623AE018E06C6EF10107BFD57631710
:1010A000F5009387C18F9C4391C31CC0B24022447A
:1010B0004101828082808280411122C42A842E854F
:1010C000B285368623AE018E06C6EF103079FD5705
:1010D0006317F5009387C18F9C4391C31CC0B24036
:1010E0002244410182801C4103A3870002831C41EA
:1010F00003A3C70002831C4103A3070102831C4111
:1011000003A3470102831C4103A3C702028301E535
:1011100003A58180828001458280732540F1828011
:1011200001C91C4103A307008547B395B70002839B
:101130000545828001C91C4103A347018547B3953A
:10114000B70002830545828001CD85471841B395DC
:10115000B70001E60323C701028303238701EDBF24
:101160000545828001C91C4103A387028547B395C9
:10117000B700028305458280854763E9A70093177E
:1011800025001385C1803E950841828001458280FB
:101190001C4103A3070002831C4103A3C701028370
:1011A0001C4103A3470202831C4103A3870202835D
:1011B00093870181370700026383A70001478E05EB
:1011C000BA95116793074700AE977D5588C3BA95C6
:1011D00090C194C3014582807D5582806F00F0727A
:1011E000411106C6732540F11D37B240410121BFB0
:1011F000011106CE2EC6ED3719C9B2450547636801
:10120000B7001C41F24003A3470005610283F2408E
:101210007D550561828001114AC806CE22CC26CABE
:101220004EC69387018101496313F5000949444182
:1012300081E82A84B7090080639B240185475CC04C
:10124000F2406244D2444249B249056182808D45F0
:1012500091C09D4583A7890BA2860146DC4F13856B
:10126000890B85048297C9BFB9C1011122CC2EC652
:1012700006CE2A84B53793870181B2456314F40200
:10128000B70700809387870B631EF50093F7B5FFC0
:101290008D466399D7001C416244F24003A3870244
:1012A00005610283F24062447D55056182807D556F
:1012B0008280B9C1011122CC2EC606CE2A840D37F8
:1012C00093870181B2456314F402B70700809387C6
:1012D000870B631EF50093F7B5FF8D466399D70022
:1012E0001C416244F24003A3470205610283F240BD
:1012F00062447D55056182807D55828001112EC634
:1013000032C436C206CE22CC26CAAA84EF00F05FD1
:101310002A84F9359387018192462246B245639526
:10132000F400854763F88700F2406244D2447D555B
:1013300005618280B70700809387870B2A87E315B2
:10134000F5FE93F7B5FF0D48E39007FF1C43624499
:10135000F240D24403A3C7010561028313870181D0
:10136000B70700026303A7008147B1661387C6FF72
:10137000E1163E97B697144388430C43E39DD5FE90
:1013800082809387018101476314F50037070002CB
:1013900089476386F50463C8B70085476382F50211
:1013A000FD573E8582808D476384F5049147E3991C
:1013B000F5FE81477DD61C428A07BA979C43D5B774
:1013C000FD5765D2411122C406C63284413F08C090
:1013D0004CC0B240224481473E8541018280FD5786
:1013E00069D21C428A07BA9723A00700814755BFDC
:1013F000FD5745DA1C428A07BA97054798C30F0084
:1014000080049C43E5B7011106CE22CC2A843133F7
:101410002AC6700022858945AD37F24062440561D5
:101420008280011106CE22CC2A84C5392AC67000DA
:1014300022858D45B937F240624405618280AA85D4
:10144000F32740F11397270093874182BA97884387
:10145000F32720340DC593F7F73F138781819387D6
:10146000070E631BE500370700808A071307870B09
:10147000BA9703A3870002838A079C470290828061
:10148000397106DE16DC1ADA1ED82AD62ED432D2EC
:1014900036D03ACE3ECC42CA46C872C676C47AC26C
:1014A0007EC0F32740F11397270093874182BA97B4
:1014B000944373262034F3271034F32730347327F2
:1014C00050308DCA938781816389F60481471375F3
:1014D000F63F63520606AD4663D5A6001377F703C1
:1014E00031E361473307E502BA9703A7070983A5EC
:1014F00087090297F250E2525253C2533255A25515
:10150000125682567247E2475248C248324EA24EA5
:10151000124F824F216173002030B70700809387FC
:10152000870B75B78946E317D7FC732770301843CC
:1015300083A5C70D7DBF1307050E0A07BA979C4701
:10154000AA85368582977DB7000000000000000064
:10155000000000000000000000000000000000008B
:10156000000000000000000000000000000000007B
:101570000000000000000000000001458280F3250B
:1015800000B8732500B0F32700B86384F500014567
:101590008145828011CD938781816306F5000145E5
:1015A0009355F54182803725F40013050540CDBFE2
:1015B0000145814582800111814701483EC406CE24
:1015C00042C693878181639CA700B707008003A56B
:1015D000471F11C51C4130008545FC438297F240EE
:1015E0002245B245056182801385018182801D45B7
:1015F00082800D458280011106CE2EC6938781819F
:101600006391A702B707008083A747197D5599C743
:10161000984370008D4578433E850297F2400561FE
:1016200082807D55E5BF011106CE2EC6938781814C
:101630006391A702B707008083A747197D5599C713
:1016400098437000894578433E850297F2400561D2
:1016500082807D55E5BF011106CE2EC6938781811C
:101660006391A702B707008083A74719014599C76F
:1016700098437000914578433E850297F24005619A
:1016800082800145E5BF938781816384A70001457E
:101690008280370500801305850B828083D7050083
:1016A0000D4711458D8B6383E700094582807325C3
:1016B00010348280739015340145828041111305E6
:1016C000400606C6EF10607E41111305800C06C669
:1016D000EF10A07D93878181B2862E86639CA70040
:1016E000B707008003A5471F11C51C41814503A30F
:1016F000870402837D558280411106C622C4F327E8
:1017000040F101446348F00013972700938741821A
:10171000BA978043228545359307A50033B5A700C6
:101720003306B50022852244B240BE8541015DB733
:101730005C41C1EBFD5773B0473073B04734F326BB
:10174000103037270400758F09C773B0373073B076
:1017500027309397D60063D50700FD5773B007185D
:10176000930705091307053923A0070023A20700E3
:1017700023A40700E107E399E7FE37170120930749
:1017800085389306853B1307C76B98C39107E39E83
:10179000F6FEF3275030B717012093870748F19BD7
:1017A00073905730F3271030416713078702F98F82
:1017B00099C7F32700300967D98F739007308547A1
:1017C0005CC18280938781816392A702AD477D557A
:1017D00063CFB70009CEB70700809385050E9387C6
:1017E000870B8A05BE9590C5014582807D55828014
:1017F00013850181828081EDF3275030B7170120D6
:1018000093870748F19B7390573001458280854745
:101810007D55E39DF5FEF3275030B73701209387C0
:1018200007F093E71700C5B739712AD61305C01220
:1018300006DE16DC1ADA1ED82ED432D236D03ACED4
:101840003ECC42CA46C872C676C47AC27EC0EF1089
:10185000C065397106DE16DC1ADA1ED82AD62ED4F7
:1018600032D236D03ACE3ECC42CA46C872C676C4D0
:101870007AC27EC0F32740F11397270093874182F5
:10188000BA97984319CF93878181631FF702B707EF
:1018900000809387870B03A7870D83A5070E0D454F
:1018A0000297F250E2525253C2533255A255125689
:1018B00082567247E2475248C248324EA24E124FF9
:1018C000824F2161730020308327000E029039710E
:1018D00006DE16DC1ADA1ED82AD62ED432D236D03C
:1018E0003ACE3ECC42CA46C872C676C47AC27EC0E0
:1018F000F32740F11397270093874182BA979843C3
:1019000019CF93878181631FF702B7070080938700
:10191000870B03A7871383A507141D450297F25071
:10192000E2525253C2533255A25512568256724752
:10193000E2475248C248324EA24E124F824F2161B6
:1019400073002030832700140290397106DE16DC04
:101950001ADA1ED82AD62ED432D236D03ACE3ECC7F
:1019600042CA46C872C676C47AC27EC0F32740F126
:101970001397270093874182BA97984319CF93878B
:101980008181631FF702B70700809387870B03A746
:10199000072183A5872141450297F250E252525315
:1019A000C2533255A255125682567247E2475248E8
:1019B000C248324EA24E124F824F21617300203036
:1019C000832780210290397106DE16DC1ADA1ED8D0
:1019D0002AD62ED432D236D03ACE3ECC42CA46C8CF
:1019E00072C676C47AC27EC0F32740F113972700EF
:1019F00093874182BA97984319CF93878181631F58
:101A0000F702B70700809387870B03A7872283A578
:101A1000072345450297F250E2525253C2533255C2
:101A2000A255125682567247E2475248C248324E79
:101A3000A24E124F824F2161730020308327002372
:101A40000290397106DE16DC1ADA1ED82AD62ED498
:101A500032D236D03ACE3ECC42CA46C872C676C4DE
:101A60007AC27EC0F32740F1139727009387418203
:101A7000BA97984319CF93878181631FF702B707FD
:101A800000809387870B03A7072483A587244945F4
:101A90000297F250E2525253C2533255A255125697
:101AA00082567247E2475248C248324EA24E124F07
:101AB000824F216173002030832780240290397186
:101AC00006DE16DC1ADA1ED82AD62ED432D236D04A
:101AD0003ACE3ECC42CA46C872C676C47AC27EC0EE
:101AE000F32740F11397270093874182BA979843D1
:101AF00019CF93878181631FF702B707008093870F
:101B0000870B03A7872583A507264D450297F2502B
:101B1000E2525253C2533255A25512568256724760
:101B2000E2475248C248324EA24E124F824F2161C4
:101B300073002030832700260290397106DE16DC00
:101B40001ADA1ED82AD62ED432D236D03ACE3ECC8D
:101B500042CA46C872C676C47AC27EC0F32740F134
:101B60001397270093874182BA97984319CF938799
:101B70008181631FF702B70700809387870B03A754
:101B8000072783A5872751450297F250E252525307
:101B9000C2533255A255125682567247E2475248F6
:101BA000C248324EA24E124F824F21617300203044
:101BB000832780270290397106DE16DC1ADA1ED8D8
:101BC0002AD62ED432D236D03ACE3ECC42CA46C8DD
:101BD00072C676C47AC27EC0F32740F113972700FD
:101BE00093874182BA97984319CF93878181631F66
:101BF000F702B70700809387870B03A7872883A581
:101C0000072955450297F250E2525253C2533255BA
:101C1000A255125682567247E2475248C248324E87
:101C2000A24E124F824F216173002030832700297A
:101C30000290397106DE16DC1ADA1ED82AD62ED4A6
:101C400032D236D03ACE3ECC42CA46C872C676C4EC
:101C50007AC27EC0F32740F1139727009387418211
:101C6000BA97984319CF93878181631FF702B7070B
:101C700000809387870B03A7072A83A5872A5945E6
:101C80000297F250E2525253C2533255A2551256A5
:101C900082567247E2475248C248324EA24E124F15
:101CA000824F2161730020308327802A029039718E
:101CB00006DE16DC1ADA1ED82AD62ED432D236D058
:101CC0003ACE3ECC42CA46C872C676C47AC27EC0FC
:101CD000F32740F11397270093874182BA979843DF
:101CE00019CF93878181631FF702B707008093871D
:101CF000870B03A7872B83A5072C5D450297F2501E
:101D0000E2525253C2533255A2551256825672476E
:101D1000E2475248C248324EA24E124F824F2161D2
:101D2000730020308327002C0290397106DE16DC08
:101D30001ADA1ED82AD62ED432D236D03ACE3ECC9B
:101D400042CA46C872C676C47AC27EC0F32740F142
:101D50001397270093874182BA97984319CF9387A7
:101D60008181631FF702B70700809387870B03A762
:101D7000072D83A5872D61450297F250E2525253F9
:101D8000C2533255A255125682567247E247524804
:101D9000C248324EA24E124F824F21617300203052
:101DA0008327802D0290397106DE16DC1ADA1ED8E0
:101DB0002AD62ED432D236D03ACE3ECC42CA46C8EB
:101DC00072C676C47AC27EC0F32740F1139727000B
:101DD00093874182BA97984319CF93878181631F74
:101DE000F702B70700809387870B03A7872E83A589
:101DF000072F65450297F250E2525253C2533255B3
:101E0000A255125682567247E2475248C248324E95
:101E1000A24E124F824F2161730020308327002F82
:101E20000290397106DE16DC1ADA1ED82AD62ED4B4
:101E300032D236D03ACE3ECC42CA46C872C676C4FA
:101E40007AC27EC0F32740F113972700938741821F
:101E5000BA97984319CF93878181631FF702B70719
:101E600000809387870B03A7073083A587306945D8
:101E70000297F250E2525253C2533255A2551256B3
:101E800082567247E2475248C248324EA24E124F23
:101E9000824F216173002030832780300290397196
:101EA00006DE16DC1ADA1ED82AD62ED432D236D066
:101EB0003ACE3ECC42CA46C872C676C47AC27EC00A
:101EC000F32740F11397270093874182BA979843ED
:101ED00019CF93878181631FF702B707008093872B
:101EE000870B03A7873183A507326D450297F25010
:101EF000E2525253C2533255A2551256825672477D
:101F0000E2475248C248324EA24E124F824F2161E0
:101F100073002030832700320290397106DE16DC10
:101F20001ADA1ED82AD62ED432D236D03ACE3ECCA9
:101F300042CA46C872C676C47AC27EC0F32740F150
:101F40001397270093874182BA97984319CF9387B5
:101F50008181631FF702B70700809387870B03A770
:101F6000073383A5873371450297F250E2525253EB
:101F7000C2533255A255125682567247E247524812
:101F8000C248324EA24E124F824F21617300203060
:101F9000832780330290397106DE16DC1ADA1ED8E8
:101FA0002AD62ED432D236D03ACE3ECC42CA46C8F9
:101FB00072C676C47AC27EC0F32740F11397270019
:101FC00093874182BA97984319CF93878181631F82
:101FD000F702B70700809387870B03A7873483A591
:101FE000073575450297F250E2525253C2533255AB
:101FF000A255125682567247E2475248C248324EA4
:10200000A24E124F824F216173002030832700358A
:102010000290397106DE16DC1ADA1ED82AD62ED4C2
:1020200032D236D03ACE3ECC42CA46C872C676C408
:102030007AC27EC0F32740F113972700938741822D
:10204000BA97984319CF93878181631FF702B70727
:1020500000809387870B03A7073683A587367945CA
:102060000297F250E2525253C2533255A2551256C1
:1020700082567247E2475248C248324EA24E124F31
:10208000824F21617300203083278036029039719E
:1020900006DE16DC1ADA1ED82AD62ED432D236D074
:1020A0003ACE3ECC42CA46C872C676C47AC27EC018
:1020B000F32740F11397270093874182BA979843FB
:1020C00019CF93878181631FF702B7070080938739
:1020D000870B03A7873783A507387D450297F25002
:1020E000E2525253C2533255A2551256825672478B
:1020F000E2475248C248324EA24E124F824F2161EF
:1021000073002030832700380290F327503093F774
:10211000F703FD17094701456367F70013878182BD
:10212000BA9703C507008280CDB7FD4763ECA700CF
:1021300085473395A700C577938787887D8D33358D
:10214000A000828001458280011122CC2A842E8544
:1021500026CA06CEAE8432C636C4C13F59C1324605
:10216000A24619CEE145B384B40226942328C408BC
:10217000232CD4080145F2406244D2440561828098
:10218000AD47638AF40263C297028D476382F40409
:102190009D475155E391F4FEB71701209387876F50
:1021A000232CF412232ED412F1B7938704FF3D475A
:1021B0005155E362F7FCE145B384B402B71701203F
:1021C0009387876C26942328F408232AD4085DB7C4
:1021D000B71701209387E743232CF40C232ED40C4C
:1021E00051BF555549BF11C99D47638AF50463E83E
:1021F000B7009DC58D47638FF5027D5615A8AD4785
:102200006382F504E3EBF5FE938705FF3D47E36644
:10221000F7FE8547B395B7000DCEF3A5453029A04D
:10222000A14709C6F3A70730014619A0F3B7073045
:1022300032858280A14719CAF3A74730F5B79307C3
:102240000008D5BF856793870780F5B7F3B7473098
:10225000C5B7F3B54530E9BF054671B7014661B76B
:102260003707008013070747B707000C6303A70071
:10227000814737072000BA978CC301458280B70792
:102280000080938707476388A700814737072000AE
:10229000BA9788438280B707000CCDBFB70700808C
:1022A00093870747639DA70099477D5563EAC70059
:1022B000B707000C8A05BE9590C1014582807D5507
:1022C0008280B7070080938707476387A70081470D
:1022D0008A05BE9588418280B707000CD5BF4111A1
:1022E0001305C01206C6EF00503C0111B70700806D
:1022F00022CC06CE26CA4AC84EC652C49387074788
:102300002A8401476314F500130750037D5563D5F4
:10231000E502B689328AAE841399250015C6228556
:102320000946AD3FE145B384B40222992324490113
:1023300026942328340F0145F2406244D244424996
:10234000B249224A0561828022850546813FE145E6
:10235000B384B402B727012022999387E72D232461
:10236000F90026942326340FF9B7B7070080938726
:1023700007476389A7008147370720001107BA97ED
:1023800088438280B707000CC5BF3707008013075A
:102390000747B707000C6303A700814737072000F2
:1023A0001107BA978CC3828041112E8522C426C2A0
:1023B00006C62E845D3FB707008093870747AA842F
:1023C0006312F4029307400363EEA70093172500FE
:1023D000A297984701CBE147B307F502A29783A5DF
:1023E000070F029722852244B240A68592444101FC
:1023F00069BF3707008013070747B706000C630360
:10240000A700814693D7554009678A07BA97B697C0
:1024100094430547B315B70001C6D58D8CC38280A0
:1024200093C5F5FFF58DDDBF01114AC803294500AD
:1024300006CE22CC26CA4EC652C456C25AC0630E1D
:102440000902F2406244D2444249B249224A924AC5
:10245000024B05618280CA8501462285593FCA85A3
:1024600001462285253D23A00A0023A0090023A2BE
:1024700009000509910AE1090DA8B70700809387B3
:102480000747130B50036303F500014BB7040080AB
:1024900083A7840B2A841385840B9C43930A8400AE
:1024A0009309C40E8297138A840BE31669FB814556
:1024B00022857D3383270A00A2860146DC4FAD4585
:1024C0001385840B829783270A0037260120A28672
:1024D000DC4F1306863AAD451385840B829783271C
:1024E0000A00AD451385840BDC53829785475CC099
:1024F00089BFB70700809387074701476314F5003A
:1025000013075003FD5763DBE5004111054606C67E
:10251000CD35B24081473E85410182803E85828033
:10252000B70700809387074701476314F500130737
:102530005003FD5763DBE5004111014606C6553DDA
:10254000B24081473E85410182803E85828083A7DB
:10255000C183411122C406C6814513850182829739
:102560002A84931714007D5563DF0700635D040020
:1025700037050080130585071374F403EF00B00FCF
:10258000050433558502B240224441018280C1B71F
:1025900083A7C183411106C69145138501828297A5
:1025A0009317150063DC0700635A0500B240370536
:1025B00000801305050641016F00F00BB2407D5508
:1025C00041018280F1B7138501828280214582809A
:1025D000411122C42A84484106C6EF009006B787FD
:1025E000001098479316F70063C706009847C17616
:1025F000FD16758F98C7378700101C47B706020075
:10260000B725F400D58F1CC71C4022859385054053
:10261000DC43829708442244B24041016F007002BB
:10262000011106CE22CC26CA2A844D372AC622851D
:10263000593F83A4C183B24582942A84B14513854E
:10264000018282949317F40063CC07006244F24045
:10265000D244370500801305450805616F00B001BD
:102660009317E400AA8463C50706370500801305A5
:102670004508EF0050009317D40063C60704935732
:1026800044008566938606C093F7F70313777400BA
:102690008507758C9306F03F0507860763FF860262
:1026A0003345E50229803305F502854733948700D9
:1026B00093F704103345850299E793F4F4038504F6
:1026C000860433559502F2406244D244056182800B
:1026D000370500801305C50669BF7D55EDB741116B
:1026E00022C426C24AC006C6AA842E893784001096
:1026F000F13D2A941C401397F700635707001C40D4
:1027000041777D17F98F1CC01C401397E700634C7D
:1027100007023705008013054508B12F0D47330721
:10272000E50291463347D7026344E9029547B30770
:10273000F502B3C7D70263CD27011C403707040059
:10274000D98F1CC0EDA0370500801305C506F1B771
:1027500037470120370800801307C751FD5613483B
:10276000F8FF13063004FD551C47636AF5025C4709
:1027700063E7A7021C4383284700B307F502B3D7DA
:102780001703638EB700B387274193D8F741B3C7C8
:10279000F800B387174163D407013E88B2867D16DF
:1027A0000117E313B6FC1C40E38AC6F8E19B1CC08A
:1027B000B747012096069387C7CBB697984B104032
:1027C0001D8B518F18C018401377F7C018C0D84B15
:1027D000144012071377073F558F18C01840FD7635
:1027E0009386F63F758F18C0984F104085662A076C
:1027F000938606C0758F518F18C0D84FB7870010C9
:1028000063520704D84713670710D8C7D847137710
:1028100007FCD8C7D84713671700D8C71C4037072D
:10282000FCFF7D17F98F1CC01C40E3DF07FE1C4036
:102830004167B240D98F1CC0224402492685924488
:102840004101F9BBD4471377F70393F6F6EFD4C7EA
:10285000D44793F606FCD4C7D447558F7DBFB787BE
:102860000010BE9588418280B7870010BE9590C148
:10287000328582801387C181B72701106303A700C7
:102880008147D8430145D98DCCC382801387C1814C
:10289000B72701106303A7008147D84393C5F5FF0D
:1028A0000145F98DCCC382809387C1816385A700E0
:1028B000814788438280B7270110E5BF9387C18194
:1028C0006385A7008147C8478280B7270110E5BF0D
:1028D0001387C181B72701106303A7008147984779
:1028E00093C5F5FF0145F98D8CC782801387C1819F
:1028F000B72701106303A700814798470145D98D89
:102900008CC782801387C181B72701106303A7009A
:102910008147D8470145D98DCCC782801387C181B3
:10292000B72701106303A7008147D84793C5F5FF78
:102930000145F98DCCC782801387C181B72701106B
:102940006303A7008147D8470145B98DCCC7828072
:102950001387C181B72701106303A7008147D85FA0
:1029600093C5F5FF0145F98DCCDF985F598E90DF57
:1029700082801387C181B72701106303A7008147B5
:10298000985F93C5F5FF0145F98D8CDF8280138731
:10299000C181B72701106303A70081471D47636CFE
:1029A000C702374701201307C7530A063A96184251
:1029B0000287984F93C5F5FF6D8F98CF98536D8F11
:1029C00098D398576D8F98D7985BF98D8CDB21A0A1
:1029D000984FD98D8CCF01458280984F4D8F98CFDD
:1029E0009853D98D8CD3C5BF9857D98D8CD7E5B75F
:1029F000984F4D8F98CF98534D8F98D398574D8FB0
:102A000098D7985BD98DD9B71387C181B7270110A3
:102A10006303A70081477D161947636DC7003747D9
:102A200001201307C7550A063A9618420287D84F65
:102A3000D98DCCCF01458280D84F4D8FD8CFD85378
:102A4000D98DCCD3C5BFD857D98DCCD7E5B7D84F02
:102A50004D8FD8CFD8534D8FD8D3D8574D8FD8D787
:102A6000D85BD98DCCDBF9B79387C1816384A7008C
:102A700001458280370500801305054782809387D2
:102A8000C181639DA7101545638B051085472145BE
:102A90006387F510894725456383F5108D472945E0
:102AA000638FF50E91472D45638BF50E95473145A4
:102AB0006387F50E994735456383F50E9D47394584
:102AC000638FF50CA1473D45638BF50CA547414548
:102AD0006387F50CA94745456383F50CAD47494528
:102AE000638FF50AB1474D45638BF50AB5475145EC
:102AF0006387F50AB94755456383F50ABD475945CC
:102B0000638FF508C1475D45638BF508C54761458F
:102B10006387F508C94765456383F508CD4769456F
:102B2000638FF506D1476D45638BF506D547714533
:102B30006387F506D94775456383F506DD47794513
:102B4000638FF504E1477D45638BF504E547130585
:102B500000026386F504E947130510026381F5045A
:102B6000ED4713052002638CF502F147130530028F
:102B70006387F502F547130540026382F502F947C2
:102B80006D45638EF500FD477145638AF500930737
:102B9000000201456395F5007545828001458280FC
:102BA000B7170080938787A46384A70001458280BC
:102BB00037050080130505478280B717008093878B
:102BC00087A4630DF50037170080130787A6914788
:102BD0006303E50081471385070282808D47E5BFC7
:102BE000484182800111B717008026CA06CE22CC48
:102BF000938787A4AA84630FF504B717008093878F
:102C000087A66300F506814701459847B706F9FF97
:102C1000FD16758F98C79847C16613868700558F34
:102C200098C7D84B058B75DF1C4100429C4309882F
:102C300013341400829725043305A402C04002C651
:102C400033558502B24763C1A702F2406244D244C1
:102C500005618280B737011037050080130505092B
:102C60006DB7B7370210CDBF0100B24785073EC62A
:102C7000D1BF4C41A9A437170080130787A4B737E9
:102C80000110630BE50037170080130787A6B737DD
:102C900002106303E5008147D843FD5763440700F2
:102CA0009377F70F9CC1014582804111B7170080CF
:102CB00006C622C426C2938787A4630CF500B71703
:102CC0000080938787A6B73402106306F5004CC1D5
:102CD0000DA8B73401104CC13705008083270509C2
:102CE000130505092E849C438297334585027D1583
:102CF00088CC9C4493E717009CC4DC4493E71700FE
:102D0000DCC4B24022449244014541018280011159
:102D10004AC83719008022CC4EC606CE26CA1309EF
:102D200089A42A84AE8963092501B7170080938797
:102D300087A68144631EF502B704008093840409CA
:102D4000C840B7370120938747BE1CC49305840051
:102D500040C43122C8C0B73701208844938727C7B1
:102D60005CC800CC93054401DD2888C49384C181EC
:102D7000CE852285A922B1C4B7050300630B2401C7
:102D8000B7170080938787A6B70584006303F40014
:102D9000814537060300630B2401B7170080938732
:102DA00087A6370684006303F40001469C40624412
:102DB000F2404249B24903A347022685D244056145
:102DC0000283F2406244D2444249B24905618280A2
:102DD000B7170080938787A46300F5023717008038
:102DE000130787A6B73702106303E50081478843BE
:102DF0001345F5FF7D818280B7370110CDBF0111EA
:102E0000B717008022CC26CA06CE938787A4AA844F
:102E100037340110630BF500B7170080938787A63E
:102E2000373402106303F500014426852EC64D3762
:102E3000B24565DD0CC0F2406244D24401450561F3
:102E40008280411122C406C62A8409E4B240224489
:102E5000410182801C40484082970044FDB723A472
:102E60000500AA8701E52E858280BA87984775FFFD
:102E70008CC7AA85CDBF1C4103A3070002830111A3
:102E800022CC2A84484106CE26CA2EC65D3F1C406D
:102E9000B2452285DC438297AA8408445D37F2401C
:102EA00062442685D244056182800100FDBF1C4139
:102EB00003A3070002831C4103A3470002831C41B4
:102EC00003A347010283000000000000000000008F
:102ED00000000000000000000000000000000000F2
:102EE00000000000000000000000000000000000E2
:102EF00000000000000000000000000000000000D2
:102F00006FE09F926FE05F926FE01F926FE07F949F
:102F10006FE09F916FE05F916FE01F916FE03F9BCB
:102F20006FE09F906FE05F906FE01F906FE0DF8F2A
:102F30006FE09F8F6FE05F8F6FE01F8F6FE0DF8E1E
:102F40006FE0BFA06FE03FA86FE0BFAF6FE03FB79B
:102F50006FE0BFBE6FE03FC66FE0BFCD6FE03FD513
:102F60006FE0BFDC6FE03FE46FE0BFEB6FE03FF38B
:102F70006FE0BFFA6FF02F826FF0AF896FF02F9183
:102F8000B7070080938707066308F502B70700803C
:102F9000938787076307F502370700801307C70980
:102FA000A1676309E500370700801307870A6303F9
:102FB000E50081473E858280B727F400938707406C
:102FC000D5BFB7A74A0493870720EDB7B70700809E
:102FD000938707066308F502B70700809387870782
:102FE0006307F502370700801307C709A167630964
:102FF000E500370700801307870A6303E500814770
:103000003E858280B727F40093870740D5BFB7A7D6
:103010004A0493870720EDB7411106C67528B240D0
:10302000930780051CC17D5541018280411106C670
:103030006520B240930780FA1CC17D554101828012
:103040007D15133515008280411106C67120B240EE
:10305000930780051CC17D5541018280411106C640
:10306000A528B240930780051CC17D55410182808F
:10307000938701D013870150638CE7009387C18445
:10308000944336956375E50088C33685828098C37E
:10309000FD56E5BF411106C622C426C28547631905
:1030A000F5002E84B384C500631E9400014531A051
:1030B0002520930780051CC17D55B24022449244CF
:1030C000410182800345040005049124F1BFAA85D3
:1030D000814601460145E9A897E7FE5F9387079B74
:1030E00088438280411122C406C697070000938757
:1030F000E7142A8499C38145812297E7FE5F93876D
:10310000279988431C5591C382972285392C4111F8
:10311000971700009387474E22C41714000013042A
:10312000A44D1D8C26C206C60984BE8411E4B2409B
:1031300022449244410182807D1493172400A69773
:103140009C438297E5B74111971700009387074A80
:1031500022C417140000130464491D8C26C24AC0FF
:1031600006C6098481443E8963968402971700004D
:103170009387C74717140000130404481D8C098463
:1031800081443E89639F8400B240224492440249B4
:103190004101828093972400CA979C4385048297BB
:1031A000E1B793972400CA979C4385048297D9BFBF
:1031B00097E7FE5F938707939C432A8E9DE317E76B
:1031C000FE5F1307679297E7FE5F23ADE79017D581
:1031D000FEDF130525E3BA8709C51C4123A2F18E42
:1031E000BA87D8437D487D556347E804630E0E02D5
:1031F00003A887086301080493182700C29823A036
:10320000C8000323081005463316E6003363C300E5
:103210002320681023A0D80889466317DE00832680
:103220004810558E2322C810930617000A07D4C3EE
:10323000BA978CC701458280797152CC56CA5AC858
:103240005EC606D622D426D24AD04ECE62C42A8B7F
:103250002E8A97EAFE5F938AEA88854B03A40A00C8
:1032600011C84440832984081389F4FF8A04A29476
:10327000635E0900B250225492540259F249624AE4
:10328000D24A424BB24B224C45618280630E0A0007
:10329000639509007D19F114E1BF93172900CE97BA
:1032A00083A70708E39847FF5840DC407D17631861
:1032B000270323222401F9DF032C4400638809003B
:1032C00083A6091033972B01F98E89EE8297584017
:1032D00083A70A00E31487F9E30EF4FA41B723A2A7
:1032E0000400D1BF93162900CE968C4283A64910C4
:1032F000758F01E75A858297D9BF2E858297C1BF06
:10330000AA8537150080130585A46FF0DFBA411137
:1033100022C406C6A9472A846314F5003545CD3773
:1033200022852244B2404101E1BF411106C6EFF0BF
:02333000DFB705
:103334002020202020202020202020202020202089
:103344002020202020202020202020202020202079
:10335400202020202020537061726B46756E20451A
:103364006C656374726F6E69637320002020202083
:1033740020205F5F5F20202020202020202020208C
:103384005F5F5F20202020202020202020205F5FFE
:103394005F202020202020202020202020202020EA
:1033A40020202020205F5F5F20202020202020205C
:1033B4002020202020202020202020202020205FCA
:1033C4005F5F20202020202020202020205F5F5FBE
:1033D4002000000020202020202F5C20205C2020C2
:1033E400202020202020202F5C20205C2020202052
:1033F40020202020202F5C20205C20202020202042
:103404002020202020202020202020202F5C20206D
:103414005C202020202020202020205F5F5F2020AF
:103424002020202020202F5C5F5F5C202020202093
:10343400202020202F5C20205C2000002020202041
:103444002F3A3A5C20205C202020202020202F3A94
:103454003A5C20205C202020202020202F3A3A5C57
:1034640020205C202020202020202020202020201C
:103474002020202F3A3A5C20205C2020202020208D
:1034840020202F5C20205C2020202020202F3A2F79
:1034940020202F20202020202020202F3A3A5C209A
:1034A400205C20002020202F3A2F5C3A5C20205CF6
:1034B40020202020202F3A2F5C3A5C20205C202002
:1034C4002020202F3A2F5C3A5C20205C20202020F2
:1034D400202020202020202020202F3A2F5C3A5C1E
:1034E40020205C202020202020205C3A5C20205CCE
:1034F400202020202F3A2F20202F20202020202081
:1035040020202F3A2F5C3A5C20205C200000000031
:1035140020202F3A3A5C7E5C3A5C20205C202020FC
:103524002F3A3A5C7E5C3A5C20205C2020202F3AC3
:103534002F20205C3A5C5F5F5C202020202020202C
:1035440020202020202F3A3A5C7E5C3A5C20205CCC
:103554002020202020202F3A3A5C5F5F5C20202F1F
:103564003A2F5F5F2F20205F5F5F2020202F3A3AA1
:103574005C7E5C3A5C20205C20200000202F3A2FE7
:103584005C3A5C205C3A5C5F5F5C202F3A2F5C3ACB
:103594005C205C3A5C5F5F5C202F3A2F5F5F2F20DA
:1035A4005C3A7C5F5F7C202020202020202020208B
:1035B4002F3A2F5C3A5C205C3A5C5F5F5C20205FB2
:1035C4005F2F3A2F5C2F5F5F2F20207C3A7C2020D6
:1035D4007C202F5C5F5F5C202F3A2F5C3A5C205C80
:1035E4003A5C5F5F5C202000205C2F5F7C3A3A5C91
:1035F4002F3A2F20202F205C3A5C7E5C3A5C205CC2
:103604002F5F5F2F205C3A5C20205C202F3A2F2014
:10361400202F202020202020202020205C2F5F5FCE
:103624005C3A5C205C2F5F5F2F202F5C2F3A2F20A9
:10363400202F20202020207C3A7C20207C2F3A2F11
:1036440020202F205C3A5C7E5C3A5C205C2F5F5F1C
:103654002F200000202020207C3A7C3A3A2F202082
:103664002F2020205C3A5C205C3A5C5F5F5C202069
:1036740020205C3A5C20202F3A2F20202F2020206D
:10368400202020202020202020202020205C3A5CA4
:103694005F5F5C2020205C3A3A2F5F5F2F20202060
:1036A4002020207C3A7C5F5F2F3A2F20202F20207F
:1036B400205C3A5C205C3A5C5F5F5C202000000088
:1036C400202020207C3A7C5C2F5F5F2F202020204C
:1036D400205C3A5C205C2F5F5F2F20202020205C40
:1036E4003A5C2F3A2F20202F202020202020202039
:1036F400202020202020202020205C2F5F5F2F20EE
:103704002020205C3A5C5F5F5C2020202020202069
:103714005C3A3A3A3A2F5F5F2F20202020205C3A0F
:103724005C205C2F5F5F2F202020000020202020C1
:103734007C3A7C20207C20202020202020205C3A01
:103744005C5F5F5C20202020202020205C3A3A2F00
:103754005F5F2F20202020202020202020202020D8
:103764002020202020202020202020202020202055
:103774005C2F5F5F2F20202020202020207E7E7E53
:103784007E202020202020202020205C3A5C5F5FC7
:103794005C2020200000000020202020205C7C5F92
:1037A4005F7C2020202020202020205C2F5F5F2FA2
:1037B4002020202020202020207E7E202020202049
:1037C40020202020202020202020202020202020F5
:1037D40020202020202020202020202020202020E5
:1037E40020202020202020202020202020202020D5
:1037F40020202020202020205C2F5F5F2F2020000D
:103804002020202020202020202020205F5F5F5FB8
:103814005F5F5F2E2E5F5F5F5F5F5F202020202051
:10382400205F5F5F2020202020202E5F5F5F5F5F8E
:103834005F202020202020205F5F20205F5F5F200A
:10384400205F5F5F5F5F5F5F20205F5F202020203D
:103854005F5F20202E5F5F2020205F5F2E202020CE
:103864002020200020202020202020202020202F65
:10387400202020202020207C7C2020205F20205C11
:10388400202020202F2020205C20202020207C208D
:1038940020205F20205C20202020207C20207C2FE2
:1038A40020202F207C2020205F5F5F5F7C7C2020F5
:1038B4007C20207C20207C207C20205C207C2020FC
:1038C4007C202000202020202020202020207C205C
:1038D4002020282D2D2D2D607C20207C5F29202068
:1038E4007C20202F20205E20205C202020207C2093
:1038F400207C5F2920207C202020207C2020272061
:10390400202F20207C20207C5F5F2020207C202012
:103914007C20207C20207C207C2020205C7C20209B
:103924007C20202020000000202020202020202097
:103934002020205C2020205C202020207C202020AF
:103944005F5F5F2F20202F20202F5F5C20205C20D2
:1039540020207C2020202020202F20202020207C9C
:10396400202020203C2020207C2020205F5F7C2001
:10397400207C20207C20207C20207C207C20202E69
:10398400206020207C202000202020202020202EA9
:103994002D2D2D2D292020207C2020207C20207CD2
:1039A40020202020202F20205F5F5F5F5F20205C8D
:1039B40020207C20207C5C20205C2D2D2D2D2E7C35
:1039C40020202E20205C20207C20207C20202020F1
:1039D400207C2020602D2D2720207C207C20207C12
:1039E4005C2020207C200000202020202020207C1F
:1039F4005F5F5F5F5F5F5F2F202020207C205F7C04
:103A0400202020202F5F5F2F20202020205C5F5F5C
:103A14005C207C205F7C20602E5F5F5F5F5F7C7C2E
:103A24005F5F7C5C5F5F5C207C5F5F7C202020208C
:103A340020205C5F5F5F5F5F5F2F20207C5F5F7C87
:103A4400205C5F5F7C20000020202020202020209C
:103A54002020202020202020202020202020202062
:103A640020202020202020202020202020205765D6
:103A74006C636F6D6520746F20746865206675745F
:103A84007572652100000000435055206E756C6C02
:103A94002E00000043505520696E74657272757073
:103AA4007420636F6E74726F6C6C6572206973201E
:103AB4006E756C6C2E00000054494D455220696EA1
:103AC4007465727275707420636F6E74726F6C6C4F
:103AD400657220697320206E756C6C2E00000000E6
:103AE40054494D455220696E746572727570742024
:103AF40068616E646C657220726567697374726163
:103B040074696F6E206661696C656400435055206A
:103B1400696E7465727275707420656E61626C652D
:103B2400206661696C65640000000000000000000C
:103B34000000000000000000000000000000000081
:103B44000000000000000000000000000000000071
:103B54000000000000000000000000000000000061
:103B64000000000000000000000000000000000051
:103B74000000000000000000000000000000000041
:103B8400000000000000000016120120F0110120C6
:103B9400DC110120000000000000000006140120D8
:103BA40022140120FC120120D8110120B21201209C
:103BB4006812012000000000000000000000000066
:103BC400000000000000000000000000821301203B
:103BD400B01101207E15012094150120B615012095
:103BE400D4160120E8150120EE150120F01701205C
:103BF400F2150120F6150120261601205616012083
:103C040086160120C41701209C160120AE1601203F
:103C1400B416012030170120F617012028210120B5
:103C24000000000000000000000000000000000090
:103C34004821012000000000582201205C220120BC
:103C44000000000000000000000000000000000070
:103C540000000000000000007A15012000000000B0
:103C640028240120000000000000000000000000E3
:103C7400000000000000000000000000EA22012013
:103C840000000000F2240120202501200000000093
:103C9400000000007E22012060220120C2220120B7
:103CA4009C2201200000000000000000D02501201B
:103CB40020260120DE260120010000002000000053
:103CC400001BB70000366E01010000001F00000059
:103CD400030000003F00000001000000200000007D
:103CE40000366E01006CDC02030000001F000000BF
:103CF400020000003F00000001000000100000006E
:103D0400808D5B00001BB700000000001F00000056
:103D1400030000003F00000001000000100000004C
:103D2400001BB70000366E01010000001F000000F8
:103D3400020000003F00000001000000100000002D
:103D440000366E01006CDC02030000001F0000005E
:103D5400020000001F000000010000000800000035
:103D6400808D5B00001BB700000000001F000000F6
:103D7400030000001F000000010000000800000014
:103D8400001BB70000366E01010000001F00000098
:103D9400020000001F0000000100000008000000F5
:103DA40000366E01006CDC02030000001F000000FE
:103DB400020000000F0000000100000004000000E9
:103DC400808D5B00001BB700000000001F00000096
:103DD400030000000F0000000100000004000000C8
:103DE400001BB70000366E01010000001F00000038
:103DF400020000000F0000000100000004000000A9
:103E040000366E01006CDC02030000001F0000009D
:103E14000200000007000000010000000200000092
:103E2400808D5B00001BB700000000001F00000035
:103E3400020000000F00000001000000020000006A
:103E4400001BB70000366E01010000001F000000D7
:103E5400010000000F00000001000000020000004B
:103E640000366E01006CDC02030000001F0000003D
:103E74000100000007000000020000000100000033
:103E8400808D5B00001BB700000000001F000000D5
:103E94000100000007000000020000000100000013
:103EA400001BB70000366E01010000001F00000077
:103EB40001000000030000000200000001000000F7
:103EC40000366E01006CDC02030000001F000000DD
:103ED40003000000FFFFFFFF0400000001000000DA
:103EE400808D5B00001BB700000000001F00000075
:103EF40003000000000000000400000001000000B6
:103F0400001BB70000366E01010000001F00000016
:103F140003000000FFFFFFFF040000000100000099
:103F240000366E01006CDC02030000001F0000007C
:103F340002000000FFFFFFFF060000000100000078
:103F4400808D5B00AAC2A2000000000023000000D4
:103F54000100000002000000060000000100000053
:103F6400AAC2A200001BB700000000001700000056
:103F740003000000FFFFFFFF060000000100000037
:103F8400001BB7000024F400010000002F00000013
:103F940003000000FFFFFFFF060000000100000017
:103FA4000024F40080A812010100000017000000A2
:103FB40002000000FFFFFFFF0600000001000000F8
:103FC40080A812015585450102000000230000006D
:103FD40002000000FFFFFFFF0800000001000000D6
:103FE400808D5B00001BB700000000001F00000074
:103FF40003000000FFFFFFFF0800000001000000B5
:10400400001BB70000366E01010000001F00000015
:1040140002000000FFFFFFFF080000000100000095
:1040240000366E01006CDC02030000001F0000007B
:1040340001000000FFFFFFFF0A0000000100000074
:10404400808D5B00007C92000000000027000000CF
:1040540003000000FFFFFFFF0A0000000100000052
:10406400007C9200001BB700000000001300000059
:1040740002000000FFFFFFFF0A0000000100000033
:10408400001BB70000F82401010000002700000015
:1040940002000000FFFFFFFF0A0000000100000013
:1040A40000F8240100366E01010000001300000036
:1040B40001000000FFFFFFFF0A00000001000000F4
:1040C40000366E0100F049020300000027000000E2
:1040D40001000000FFFFFFFF0C00000001000000D2
:1040E400808D5B0000127A00000000002F000000A9
:1040F40003000000FFFFFFFF0C00000001000000B0
:1041040000127A00001BB700000000001700000036
:1041140002000000FFFFFFFF0C0000000100000090
:10412400001BB7000024F400010000002F00000071
:1041340002000000FFFFFFFF0C0000000100000070
:104144000024F40000366E01010000001700000096
:1041540001000000FFFFFFFF0C0000000100000051
:1041640000366E0180C3C901030000002F00000067
:1041740001000000FFFFFFFF0C0000000100000031
:1041840080C3C9010048E801030000002F000000BB
:1041940001000000FFFFFFFF0E000000010000000F
:1041A400808D5B00B6A168000000000037000000AD
:1041B40003000000FFFFFFFF0E00000001000000ED
:1041C400B7A16800001BB700000000001B0000003E
:1041D40002000000FFFFFFFF0E00000001000000CE
:1041E400001BB7006D43D100010000003700000040
:1041F40002000000FFFFFFFF0E00000001000000AE
:104204006E43D10000366E01010000001B00000067
:1042140001000000FFFFFFFF0E000000010000008E
:1042240000366E01DB86A2010300000037000000A7
:1042340001000000FFFFFFFF10000000010000006C
:10424400808D5B00001BB700000000001F00000011
:1042540002000000FFFFFFFF10000000010000004B
:10426400001BB70000366E01010000001F000000B3
:1042740001000000FFFFFFFF12000000010000002A
:10428400808D5B00AAC2A200000000002300000091
:1042940002000000FFFFFFFF120000000100000009
:1042A400ABC2A200001BB700000000001100000018
:1042B40001000000FFFFFFFF1200000001000000EA
:1042C400001BB700558545010100000023000000D4
:1042D40001000000FFFFFFFF1400000001000000C8
:1042E400808D5B00007C920000000000270000002D
:1042F40002000000FFFFFFFF1400000001000000A7
:10430400007C9200001BB7000000000013000000B6
:1043140001000000FFFFFFFF140000000100000087
:10432400001BB70000F82401010000002700000072
:1043340001000000FFFFFFFF160000000100000065
:10434400808D5B00E82A8500000000002B0000003F
:1043540002000000FFFFFFFF160000000100000044
:10436400E92A8500001BB7000000000015000000CA
:1043740001000000FFFFFFFF160000000100000025
:10438400001BB700D1550A01010000002B000000FA
:1043940001000000FFFFFFFF180000000100000003
:1043A400808D5B0000127A00000000002F000000E6
:1043B40002000000FFFFFFFF1800000001000000E2
:1043C40000127A00001BB700000000001700000074
:1043D40001000000FFFFFFFF1800000001000000C3
:1043E400001BB7000024F400010000002F000000AF
:1043F40001000000FFFFFFFF1A00000001000000A1
:10440400808D5B0027AE70000000000033000000C8
:1044140002000000FFFFFFFF1A000000010000007F
:1044240028AE7000001BB700000000001900000057
:1044340001000000FFFFFFFF1A0000000100000060
:10444400001BB7006658E1000100000033000000C3
:1044540001000000FFFFFFFF1C000000010000003E
:10446400808D5B00B6A168000000000037000000EA
:1044740002000000FFFFFFFF1C000000010000001D
:10448400B7A16800001BB700000000001B0000007B
:1044940001000000FFFFFFFF1C00000001000000FE
:1044A400001BB7006D43D10001000000370000007D
:1044B40001000000FFFFFFFF1E00000001000000DC
:1044C400808D5B0000A86100000000003B0000003C
:1044D40002000000FFFFFFFF1E00000001000000BB
:1044E40000A86100001BB700000000001D000000D0
:1044F40001000000FFFFFFFF1E000000010000009C
:10450400001BB7000050C300010000003B00000086
:1045140001000000FFFFFFFF200000000100000079
:10452400808D5B00001BB700000000001F0000002E
:1045340001000000FFFFFFFFB2290120D029012064
:10454400E0290120DA290120022A0120E82901209A
:10455400FC290120F02901202E2A01203E2A0120D5
:10456400382A0120602A0120462A01205A2A0120E3
:104574004E2A01208C28012074280120A82801201B
:10458400BC280120D0280120EC2801200429012086
:104594001C290120382901205029012072290120D9
:1045A4008E290120082A0120682A01207E2A012060
:1045B4000E2D0120FE2D012000000000762C01208C
:1045C400E02B0120AA2C0120A02B0120BA2B0120D2
:1045D400DC450120000000006C6962676C6F737336
:0445E40000000000D3
:0C45E800FC020120080301201C0301203C
:1045F800000000004C3B01206C3B01202C3B0120BB
:1046080000000000000000000000000000000000A2
:104618000000000000000000000000000000000092
:104628000000000000000000000000000000000082
:104638000000000000000000000000000000000072
:104648000000000000000000000000000000000062
:10465800CC0A00800000000000000000BC0A0080B6
:104668000000000000000000CC0A008000000000EC
:1046780000000000B40A00800000000000000000F4
:10468800B43C01200000000000000000CC0A0080BB
:104698000000000000000000CC0A008000000000BC
:1046A8000000000000000000183C0120000000008D
:1046B80000000000000000000000000000000000F2
:1046C80000000000000000000000000000000000E2
:1046D80000000000000000000000000000000000D2
:1046E80000000000000000000000000000000000C2
:104A6800643C01200000000000000000000000007D
:104A7800000000000000000000000000000000002E
:104A8800000000000000000000000000000000001E
:104A9800000000000000000000000000000000000E
:104AA80000000000000000000000000000000000FE
:105038000000000000000000B4450120000000004E
:105048000000000000000000000000000000000058
:105058000000000000000000B4450120000000002E
:105068000000000000000000000000000000000038
:105078000000000000000000000000800000008028
:10508800A00A0080A40A00808C3B012000000000D8
:10509800D83B012078450120C40A0080A00A00807E
:1050A800010304004E2501208E25012090250120B2
:1050B800C42501205E28012068280120802F0120B6
:0850C800CC2F0120880F0080AD
:0400000520010000D6
:00000001FF
